:1000000080470020F11500005B860000DD15000030
:10001000DD150000DD150000DD150000000000000A
:10002000000000000000000000000000B117000008
:10003000DD150000000000004D170000DD15000078
:100040008D1900008D1900008D1900008D19000018
:100050008D1900008D1900008D1900008D19000008
:100060008D1900008D1900008D1900008D190000F8
:100070008D1900008D1900008D1900008D190000E8
:100080008D1900008D1900008D1900008D190000D8
:100090008D1900008D1900008D1900008D190000C8
:1000A0008D1900008D1900008D1900008D190000B8
:1000B0008D1900008D1900008D1900008D190000A8
:1000C0008D1900008D1900008D1900008D19000098
:1000D0008D1900008D1900008D1900008D19000088
:1000E0008D1900008D1900008D1900008D19000078
:1000F0008D1900008D1900008D1900008D19000068
:1001000080F0004002E000BF81F0004142001FBFCC
:100110005FEA410392EA030F7FEA226C7FEA236CD5
:100120006AD04FEA1262D2EB1363C1BFD2184140CA
:1001300048404140B8BF5B42192B88BF704710F060
:10014000004F40F4000020F07F4018BF404211F003
:10015000004F41F4000121F07F4118BF494292EA6B
:10016000030F3FD0A2F1010241FA03FC10EB0C0097
:10017000C3F1200301FA03F100F0004302D5494224
:1001800060EB4000B0F5000F13D3B0F1807F06D3D1
:1001900040084FEA310102F10102FE2A51D2B1F1C9
:1001A000004F40EBC25008BF20F0010040EA0300BE
:1001B0007047490040EB0000013A28BFB0F5000F3E
:1001C000EDD2B0FA80FCACF1080CB2EB0C0200FAF4
:1001D0000CF0AABF00EBC25052421843BCBFD04043
:1001E0001843704792F0000F81F4000106BF80F4BD
:1001F00000000132013BB5E74FEA41037FEA226C80
:1002000018BF7FEA236C21D092EA030F04D092F04A
:10021000000F08BF0846704790EA010F1CBF00207E
:10022000704712F07F4F04D1400028BF40F00040DB
:10023000704712F100723CBF00F50000704700F0FB
:10024000004343F0FE4040F4000070477FEA226222
:1002500016BF08467FEA23630146420206BF5FEAF3
:10026000412390EA010F40F4800070474FF00003F3
:1002700004E000BF10F0004348BF40425FEA000CBA
:1002800008BF704743F0964301464FF000001CE062
:1002900050EA010208BF70474FF000030AE000BFB8
:1002A00050EA010208BF704711F0004302D54042F6
:1002B00061EB41015FEA010C02BF84460146002068
:1002C00043F0B64308BFA3F18053A3F50003BCFA83
:1002D0008CF2083AA3EBC25310DB01FA02FC634430
:1002E00000FA02FCC2F12002BCF1004F20FA02F237
:1002F00043EB020008BF20F00100704702F120022A
:1003000001FA02FCC2F1200250EA4C0021FA02F28A
:1003100043EB020008BF20EADC7070474FF0FF0C8F
:100320001CEAD0521EBF1CEAD15392EA0C0F93EA8A
:100330000C0F6FD01A4480EA010C400218BF5FEA2C
:1003400041211ED04FF0006343EA501043EA51119F
:10035000A0FB01310CF00040B1F5000F3EBF490099
:1003600041EAD3715B0040EA010062F17F02FD2A9D
:100370001DD8B3F1004F40EBC25008BF20F0010080
:10038000704790F0000F0CF0004C08BF49024CEA97
:10039000502040EA51207F3AC2BFD2F1FF0340EA29
:1003A000C250704740F400004FF00003013A5DDC9A
:1003B00012F1190FDCBF00F000407047C2F10002DB
:1003C000410021FA02F1C2F1200200FA02FC5FEAC8
:1003D000310040F1000053EA4C0308BF20EADC7012
:1003E000704792F0000F00F0004C02BF400010F484
:1003F000000F013AF9D040EA0C0093F0000F01F031
:10040000004C02BF490011F4000F013BF9D041EA52
:100410000C018FE70CEAD15392EA0C0F18BF93EA54
:100420000C0F0AD030F0004C18BF31F0004CD8D17E
:1004300080EA010000F00040704790F0000F17BF05
:1004400090F0004F084691F0000F91F0004F14D04B
:1004500092EA0C0F01D142020FD193EA0C0F03D1A3
:100460004B0218BF084608D180EA010000F00040A6
:1004700040F0FE4040F40000704740F0FE4040F481
:10048000400070474FF0FF0C1CEAD0521EBF1CEA20
:10049000D15392EA0C0F93EA0C0F69D0A2EB03023E
:1004A00080EA010C49024FEA402037D04FF08053D8
:1004B00043EA111143EA10130CF000408B4238BF9D
:1004C0005B0042F17D024FF4000C8B4224BF5B1AAB
:1004D00040EA0C00B3EB510F24BFA3EB510340EAF9
:1004E0005C00B3EB910F24BFA3EB910340EA9C00A7
:1004F000B3EBD10F24BFA3EBD10340EADC001B0117
:1005000018BF5FEA1C1CE0D1FD2A3FF650AF8B42BA
:1005100040EBC25008BF20F0010070470CF0004CC7
:100520004CEA50207F32C2BFD2F1FF0340EAC250F2
:10053000704740F400004FF00003013A37E792F0B3
:10054000000F00F0004C02BF400010F4000F013A11
:10055000F9D040EA0C0093F0000F01F0004C02BF0C
:10056000490011F4000F013BF9D041EA0C0195E775
:100570000CEAD15392EA0C0F08D142027FF47DAF0E
:1005800093EA0C0F7FF470AF084676E793EA0C0FFE
:1005900004D14B023FF44CAF08466EE730F0004CFC
:1005A00018BF31F0004CCAD130F000427FF45CAF8C
:1005B00031F000437FF43CAF5FE700BF4FEA4002F9
:1005C000B2F1FE4F0FD34FF09E03B3EB12620DD981
:1005D0004FEA002343F0004310F0004F23FA02F0EB
:1005E00018BF404270474FF00000704712F1610F92
:1005F00001D1420205D110F0004008BF6FF0004069
:1006000070474FF00000704753B94AB9002908BF3E
:1006100000281CBF4FF0FF314FF0FF3000F00CB846
:10062000ADF1080C6DE904CE00F008F8DDF804E047
:10063000DDE9022304B07047704700BF2DE9F047A1
:1006400086468C460846089E154674461946002B79
:1006500040F0C2808542B2FA82F245D94AB1C2F175
:10066000200300FA02FC2EFA03F3954043EA0C0C37
:1006700094404FEA154EA8B2BCFBFEF8230C0EFBCB
:1006800018CC08FB00F943EA0C43994528D9EB182C
:1006900008F1FF3704D2994502D9A8F102072B448B
:1006A000A3EB0903A4B2B3FBFEFC0EFB1C330CFB53
:1006B00000F044EA0344A04214D92C190CF1FF3392
:1006C00004D2A04202D9ACF102032C44241A43EA1A
:1006D00007401EB1D440002334607360BDE8F0874A
:1006E0004746DDE76346F1E792BB431B01214FEA32
:1006F000154EAFB2B3FBFEFC200C0EFB1C330CFB03
:1007000007F840EA0343984562D9EB180CF1FF3033
:1007100004D2984502D9ACF102002B44A3EB0803A4
:10072000A4B2B3FBFEFC0EFB1C330CFB07F744EA40
:100730000344A7424ED92C190CF1FF3304D2A7422F
:1007400002D9ACF102032C44E41B43EA0040C0E7A9
:10075000C2F1200320FA03F1954090402EFA03F3F2
:1007600003434FEA154EAFB2B1FBFEFC0EFB1C106B
:10077000190C0CFB07F841EA0041884504FA02F421
:1007800022D969180CF1FF3004D2884502D9ACF1A6
:1007900002002944A1EB08019BB2B1FBFEFC0EFB59
:1007A0001C110CFB07F743EA01439F420ED9EB18DB
:1007B0000CF1FF3104D29F4202D9ACF102012B446B
:1007C000DB1B41EA004192E76046E3E76146F7E759
:1007D0006046A3E76346B7E7834206D916B900210E
:1007E00008467BE7C6E900E0F9E7B3FA83F78FB97B
:1007F000834201D3724508D8BEEB020460EB0303C9
:1008000001209C461EB9002168E73846FAE7C6E990
:10081000004CF8E7C7F1200CBB4022FA0CF41C4353
:100820002EFA0CF120FA0CF3B84001434FEA1449B8
:100830000EFA07F5B3FBF9F81FFA84FE09FB18302E
:100840000B0C08FB0EFA43EA00439A4502FA07F242
:1008500040D9E31808F1FF3004D29A4502D9A8F133
:1008600002002344A3EB0A0389B2B3FBF9F809FBA6
:10087000183308FB0EFE41EA03418E452CD961185E
:1008800008F1FF3304D28E4502D9A8F102032144B6
:1008900043EA0040A0FB0298A1EB0E014145CE4681
:1008A000434602D306D14D4504D2B9EB020E68EBA4
:1008B00004030138002EA6D0B5EB0E0261EB030154
:1008C00001FA0CFC22FA07F34CEA0303F940C6E9EB
:1008D000003198E74046C5E74346D9E7034613F899
:1008E000012B002AFBD1181A0138704702460B462B
:1008F000014804F055B800BFF8070020014804F093
:1009000013B800BFF807002070B586B0144C154925
:10091000A368154D1B68154E2046984714220021E8
:1009200001A808F0C5FD0223CDE9023504930A238E
:100930008DF81430A36801A95B682046984750B928
:100940002B88ADF804304FF0FF324FF0FF3301A990
:10095000304603F03FFF4FF47A7007F012FDDDE7F9
:10096000DC950000289B0000BC19002054030020E7
:1009700038B51B4D1B4C4FF0FF314FF0FF30FFF7E8
:10098000B5FF284607F0C9FC2379003818BF0120BD
:10099000984218BF2071144807F0BFFC63790038F3
:1009A00018BF0120984218BF6071104807F0B5FCCD
:1009B000A379003818BF0120984218BFA0710C48D5
:1009C00007F0ABFCE379003818BF0120984218BF4C
:1009D000E071FFF793FF642007F0D3FCCBE700BF83
:1009E00000980000E8070020F8970000F09700004A
:1009F000E89700002DE9F0411C4B0FCB86B002AC0C
:100A000084E80F00002301934FF001084FF0FF30FE
:100A10004FF0FF31FFF76AFF154F01AE002517F8C1
:100A2000012B16F8013B9A4216D054F8253018686D
:100A3000197903691B6808FA01F1194203D022B140
:100A400083681B6903E0002AFAD08368DB68984753
:100A500017F8013C06F8013C0135042DDFD1FFF702
:100A60004DFF642007F08DFCD0E700BFD097000059
:100A7000E807002037B50D4D0D4C4FF0FF324FF019
:100A8000FF336946284603F0F5FE4FF0FF314FF083
:100A9000FF30FFF72BFFBDF8003001982381FFF7EF
:100AA0008DFDE060FFF72AFFE7E700BF7C03002031
:100AB000E8070020F0B5174F174E85B04FF07E5570
:100AC0004FF0FF324FF0FF330DF10601134803F0F2
:100AD000D1FEBDF906402046FFF7CCFB3946FFF7B3
:100AE000D1FC3146FFF71AFC2946FFF70DFB0C49F4
:100AF000FFF714FCFFF762FDFFF7BCFBADF8084001
:100B000003904FF0FF324FF0FF3302A9054803F086
:100B100061FED5E700C07F44000040405403002040
:100B200000606A477C0300202DE9F74F0B78022B09
:100B300006460D466DD0052B73D003B0BDE8F08F8F
:100B4000A4F13503032B43D84FF0FF304FF0FF31B2
:100B5000FFF7CCFE09EB040313F831BCFFF7CEFE20
:100B6000CDF800B0A4F1340352464021404607F0CE
:100B70004BF94046FFF7B2FE0246B36841465C6857
:100B800030464FF0FF33A0470137EB68BB42D4D962
:100B9000D5E901323B449C5CA4F1310B5FFA8BF345
:100BA000032BCDD84FF0FF304FF0FF31FFF79EFE03
:100BB00019F80B3083F0010309F80B30FFF79EFEA4
:100BC0001D4AA4F130034021404607F01DF9D0E74B
:100BD000392C0FD14FF0FF304FF0FF31FFF786FE79
:100BE000164BB3F90840FFF789FE154A234615480E
:100BF0004021EAE7302CC7D14FF0FF304FF0FF31F2
:100C0000FFF774FE0D4BDC68FFF778FE0E4A2346B3
:100C1000EDE7DFF83080DFF82490DFF830A0002720
:100C2000B3E783680A49DC680A226423A44603B058
:100C3000BDE8F04F604700BF309B0000E807002090
:100C4000579B0000BE1900206E9B0000419B0000D6
:100C5000FE190020F0B55149514889B007F072FBE8
:100C60004E49504807F06EFB4C494F4807F06AFB6D
:100C70004A494E4807F066FB4D484FF4D01107F043
:100C800061FB4C484FF4D01107F05CFB4A484FF42D
:100C9000D01107F057FB49484FF4D01107F052FB31
:100CA000474C484808F012FA10220021464808F044
:100CB000FFFB206808F097F920B9444807F073FB60
:100CC000012467E0424B186808F08DF908B94148E3
:100CD000F4E7206883681B680BB93F48EEE73F499B
:100CE000002298470028F8D1206883683C495D6855
:100CF00028224FF0FF33A84708B13A48DEE72068C2
:100D000083683949DC680A226423A0470446002826
:100D1000D6D1002600270625CDE90205CDE9000041
:100D20000490CDE906672D4B304931484FF480627D
:100D300003F0D8FC0723CDE90243CDE90667CDE9EE
:100D400000442C4B2C4904944FF480622B4803F050
:100D5000C9FC2B4B2B490094CDE90667CDE9035420
:100D6000CDE901444FF48062274803F0BBFC052322
:100D7000CDE90243CDE90667CDE90044234B244980
:100D8000244804944FF4806203F0ACFC4FF47A7072
:100D900007F0F7FA204609B0F0BD00BF10000100CF
:100DA00000980000F8970000F0970000E897000016
:100DB0002098000018980000109800000898000083
:100DC00068010020F8070020E8070020949B00003D
:100DD0006C010020AB9B0000C19B0000290B0000B0
:100DE000CC020020DE9B0000FE190020002B00201A
:100DF0002805002009090000C0260020A8040020C2
:100E0000B50A00008022002028040020750A000096
:100E1000401E0020A8030020014B1B68184700BF9C
:100E200070010020014B1860704700BF7001002066
:100E300030B585B004460D4610220021684608F002
:100E400037FB02238DF802302A46044B01932146DA
:100E5000684607F005F805B030BD00BF190E000068
:100E600080B505460E461746984604F059F90346E4
:100E700008F02EFBDFF81890044649F8003042468F
:100E800030463946A84754F8090000F031FC00BF4D
:100E9000080000002DE9F047058B0446280790461E
:100EA00011D4022905F0070540F0CD80204607F057
:100EB000F0FA78B10138218B042811D8DFE800F06E
:100EC000C3106D85950001290CBF45F0100545F054
:100ED0002005258388F31188BFF36F8FBDE8F08765
:100EE00001F0070AAA4500F0A6800027B9463E4651
:100EF000A368002B00F0BD8041F00801218388F336
:100F00001188BFF36F8FA168002900F0BB800D68C6
:100F1000002900F0B780D1F80480334652462046BD
:100F2000C047002D76D02B6829461D46F0E701F01A
:100F300007035A1F012A1BD8002221F00701062BA4
:100F4000276889B2C4E9002209D13B4603E0628BDD
:100F5000013262831B68002BF9D141F00201218329
:100F6000204607F096FA00287BD041F0200177E078
:100F7000042B0AD121F0070189B22183204607F012
:100F800088FA10B141F020012183218B01F0070A7A
:100F9000AA4550D00027B946AAE7236921F00701E6
:100FA00041F00601062DD3F8009021832DD1B9F12F
:100FB000000F40D041F00801218388F31188BFF36E
:100FC0006F8F3A492046C84729E021F0070123697D
:100FD00041F0040189B2042DD3F804902183E6D0B6
:100FE00000273E464FF0040A82E721F007012369FB
:100FF00041F0050189B2052DD3F808902183D6D0A0
:1010000000273E464FF0050A72E700273E464FF0A4
:10101000060A6DE72B4687E7B9F1000FD1D14FF0F3
:101020002003EFF3118883F31288BFF36F8F238BB4
:1010300023F008032383258BEA062ED525F0100321
:10104000238305F007056669218B002EBFF66FAF7D
:1010500000232768C4E9003321F0070141F00101B2
:101060002183218B01F0070AAA454FF000097FF484
:101070003FAF002F9BD041F00801218388F31188F6
:10108000BFF36F8F002FC7D03D68394633465246B5
:10109000204607F02AFA2F46F4E7AB067FF51AAF91
:1010A00025F02003238305F00705FFE617850000E0
:1010B00008B504464FF02002EFF3118382F3128843
:1010C000BFF36F8F02F0EEFA204600F0BBFA034840
:1010D00007F069F900F034FCFCE700BF0B9C00004E
:1010E000014B03600020704728980000014804F07D
:1010F00089BA00BF2898000038B5044618B90F4BCC
:101100000F485B6898476168B1F5683F10D0B1F54A
:10111000680F0DD00B4DA9420AD011F46861206808
:1011200007D00146084807F091FF0023236065605F
:1011300038BD142208F0BCF9F9E700BF5C020020BA
:10114000349C00002C5F5CA90C0D002008B520B376
:101150004368B3F5683F10D101220368BFF35B8F8A
:1011600053E8001F002903D143E800200028F7D1ED
:10117000BFF35B8F0DD1002008BD094A93420AD00E
:1011800000684FF0FF324FF0FF3303F009FC0028F6
:10119000F1D00448F0E70448EEE76FF4E040EBE7F5
:1011A0002C5F5CA9E98FFFFFEA8FFFFF08B5D8B17C
:1011B0004368B3F5683F10D100220368BFF35B8F2B
:1011C00053E8001F012903D143E800200028F7D18C
:1011D000BFF35B8F0BD1002008BD074A934208D0B4
:1011E000006803F0A1FBF6E76FF4E040F4E7034882
:1011F000F2E70348F0E700BF2C5F5CA9E98FFFFF2F
:10120000EA8FFFFF10B5044618B91D4B1D485B68F7
:1012100098476368B3F5683F2FD0B3F5680F2CD0BB
:10122000194A934219D1236803BB18484FF0FF3283
:101230004FF0FF33214603F0E7F908B923681BB9E3
:101240000F4B13485B68984720681422002108F070
:101250002FF94FF46863636008E0B3F5683F0DD879
:101260003A2B03D040F6BA629342DED1206807F0F1
:101270002DFF636843F03A03636010BD054AF3E74E
:101280005C020020349C00002C5F5CA90C0D002047
:101290005A9C00003A00003A08B506490648402327
:1012A000142207F0C5FEBDE808400449044804F0D4
:1012B0006DBA00BF0C0800200C0D00203098000013
:1012C0004498000030BFFFF7FDBF00BF114B124A2A
:1012D0002DE9F041D518DFF84480013DB5FBF3F569
:1012E0005D430F4B08EB0304013CB4FBF3F403FB39
:1012F00004540E1B07460B49304608F0B1F870192C
:1013000042460021083E08F0D3F83E6704F1080089
:10131000BDE8F081010000000000000004000000B2
:1013200004000000D0970000044B99685869884277
:1013300003D003494FF080520A607047CC0E002062
:1013400004ED00E070B5264B15469A6A12F0100FB6
:101350009A6A14BF1124102412F0080F9A6A18BF59
:101360001224920706460AD5586B9A6A140634D599
:1013700019B19A6A22F080029A62132401E06FF098
:101380001500174B9A6A12F0010F9A6A18BF1424BD
:1013900012F0200F9A6A18BF1524D20602D49B6A55
:1013A0009B070AD50E4B5B68190506D5314600F040
:1013B0008FFA10B180F309880224094B9A6A9206C9
:1013C00042BF5A6A22F400525A629A6A42F0FF02FD
:1013D0009A6200232B70204670BD6FF01500CCE799
:1013E00000ED00E0134B9A6A12F0007F9A6A14BF76
:1013F0001E201D2012F0807F9A6A18BF1F2012F451
:10140000002F9A6A18BF212012F4802F9A6A18BF01
:10141000222012F4003F9A6A18BF232012F4803F62
:101420009A6A6FEA02426FEA12429A6218BF242057
:10143000704700BF00ED00E010B5194B0246986AF6
:101440009C6A10F4805F14BF1720162014F4006FFC
:101450009C6A18BF1820A40509D5986B986A0004E7
:1014600004D51AB19A6A22F400429A6219200C4BF0
:101470009A6A12F4806F9A6A18BF1A20D2050CD4A7
:101480009B6A13F4005F18BF1C20054A936A43F45B
:101490007F43936200230B7010BD1B20F5E700BF54
:1014A00000ED00E0F0B5484B5B688BB00446C3F339
:1014B0000803002585F31188BFF36F8F02F07F408A
:1014C000B0F17F4F11D102F00C0008280DD01007A9
:1014D0004CBF0C4601250022033B8DF80720032B4F
:1014E00005D8DFE803F0246367602C46F3E70023A8
:1014F0009DF80720CAB902AE04F120072068616890
:10150000324603C20834BC421646F7D1099A002D70
:1015100054D0C2F3080121B96FEA52226FEA422285
:10152000099202A9184607F092F80BB0F0BD264BBD
:10153000DA6A9107DBD4DA6A002AD8DBDA6A520069
:10154000D5D55A69A16942F480725A61BFF34F8FB1
:10155000BFF36F8F5A6931F8021C22F480725A610E
:10156000BFF34F8FBFF36F8F4DF6027291420AD0D7
:101570009A6AD2B24AB10DF1070201212046FFF763
:10158000E1FE0346B4E72368B2E79A6A12F47F4F9C
:1015900005D00DF107010120FFF74EFFF1E79B6A2F
:1015A000B3F5803FA3D3FFF71DFFEAE70DF1070274
:1015B0000021E3E70DF107010020EDE722F4FF72BF
:1015C00022F00102ACE700BF00ED00E0024A5369DF
:1015D00043F010035361704700ED00E0EFF3088023
:1015E000EFF3098101B57246FFF75CFF01BD00BF53
:1015F000002080F31488BFF36F8F00F027FB0020DA
:101600000D490860BFF34F8F0C4880F3088800F045
:101610003DF8202080F3118809484FF404614018F8
:1016200080F30988EFF314800221084380F31488C3
:10163000BFF36F8F00F014F994ED00E080470020B5
:10164000C0350020BFF34F8F0549064BCA6802F42E
:10165000E0621343CB60BFF34F8F00BFFDE700BFD5
:1016600000ED00E00400FA050749D1F890200023BE
:10167000C2F307221846934200DB7047C1F8983046
:10168000C1F8A0000133F6E700ED00E008B572B63E
:10169000002383F31388FFF7E7FF144B4FF0FF326B
:1016A000C3F88020C3F88420C3F88820C3F88C20B6
:1016B000C3F89020C3F89420C3F89820C3F89C2066
:1016C000C3F88021C3F88421C3F88821C3F88C2192
:1016D000C3F89021C3F89421C3F89821C3F89C2142
:1016E00062B6BFF34F8FBFF36F8F08BD00E100E01C
:1016F000084B9B6883420BD1EFF3058343B1064B44
:101700005A6842F080525A605A6A22F400425A6281
:1017100007F0D5BDCC0E002000ED00E0094A93682B
:101720006FF00A019967084958674B6843F0805386
:101730004B60002383F31188BFF36F8F9368986F1A
:10174000704700BFCC0E002000ED00E015498A680C
:101750004FF030001044EFF3098C80E8F01F202098
:1017600080F31288BFF36F8F0F4F4FF000664A6906
:101770008A603E604FF07004141920680B4C2060A2
:10178000506F0023536780F3118804B5104600F0B2
:101790001DF9BDE8044002F1300090E8F01F8CF321
:1017A00009887047CC0E002004ED00E0280D0020D1
:1017B0001EF0040F0CBFEFF30880EFF3098081697E
:1017C00011F8021C0229FFD001B506F042FF01BD4D
:1017D00040B2002807DB044A4109012300F01F0042
:1017E000834042F82130704700E100E040B2002819
:1017F0000CDB4309064900F01F0020330122824020
:1018000041F82320BFF34F8FBFF36F8F704700BFA6
:1018100000E100E0054B420900F01F0053F82220D0
:10182000012303FA00F01040704700BF00E100E020
:1018300040B20028A8BF00F1604001F10101B8BF2B
:10184000064B4FEA4111ACBF00F5614000F00F00BC
:10185000C9B2B4BF195480F80013704714ED00E00A
:101860000B4A08B50B4B22F07F029A60BFF34F8FF3
:10187000BFF36F8FD3F8882022F47002C3F888205A
:1018800002F0F0FD03F052FC00F074F802F03CFEB0
:101890000000000000ED00E042F8203C009B42F810
:1018A0001C3C0A49019B42F8183C029B42F8143C3C
:1018B00021F001014FF0807342F8043C42F8081C0B
:1018C0000023203A02654367704700BF610E0000A5
:1018D000094A0346906870B113F1160F006E05D0E7
:1018E000A0F140029A4205D8834203D2814228BF28
:1018F0000020704700207047CC0E002008B5144629
:101900000A4A0B4B9060026F1A600D4600F05EF8B9
:10191000204685F30988002163B681F31188BFF35F
:101920006F8F00220023FFF79BFA00BFCC0E002030
:10193000280D0020014910220A60704710ED00E0D8
:1019400072B6404080F31188BFF36F8FBFF34F8FA3
:1019500030BF62B6BFF36F8F704700BF72B64940A9
:1019600081F31188BFF34F8F20BF80F3118862B6D7
:10197000704700BF044800232021C2180133302BD8
:1019800082F80013F9D1704700E100E001B5EFF3F0
:101990000580A0F110004FEAC0000449014409C9C4
:1019A0009847BDE80140024908470000F095000053
:1019B00029130000024B034A0348012100F040B8FC
:1019C000000004200000002054980000026E054B27
:1019D000403A1A60044A4021C3E901121846012125
:1019E00000F038B82C0D002000000B15084AC2F892
:1019F00098000B6823F01F03034343F01003C2F861
:101A00009C308B6843F00103C2F8A030704700BFE0
:101A100000ED00E0044B0522C3F89420BFF34F8F84
:101A2000BFF36F8F704700BF00ED00E0BFF35F8F23
:101A3000024B0022C3F89420704700BF00ED00E085
:101A400010B5034C0123227806F022FE207010BD51
:101A5000081A002008B5094A0023127806F018FE7B
:101A600010F1160F03D0064B0022072800DD08BD39
:101A7000C3F89800C3F8A0200130F6E7081A002048
:101A800000ED00E0F0B5454D2C68082C85B000F263
:101A90008280FFF7CBFF00200C2684420DD1404D01
:101AA000404F2C706846FFF71BFB00240646A642F9
:101AB0000AD1FFF7AFFF00201CE0696806FB0011A8
:101AC000FFF794FF0130E8E7009800EB04114FEABC
:101AD000041CCB683B40B3F5000F4AD00CD8B3F5DB
:101AE000001F30D0B3F5800F38D0B3F5801F12D06F
:101AF0006FF0150005B0F0BDB3F1807F42D0B3F1B7
:101B0000007FF5D150F80C3088684A6806F0B0FDC7
:101B100040F4802009E050F80C3088684A6806F0EC
:101B2000A7FD40F0885040F4302003902878072823
:101B3000CDE90123DCD801A9FFF758FF2B78013349
:101B40002B700134B3E750F80C3088684A6806F00F
:101B50008FFD40F0885040F40020E6E750F80C304C
:101B600088684A6806F084FD40F0E06040F4003088
:101B7000DBE750F80C3088684A6806F079FD40F0E1
:101B80008270D2E750F80C3088684A6806F070FD21
:101B900040F08870C9E74FF0FF30ABE76098000075
:101BA000081A00200000F0FF08B5024B1B68984798
:101BB000002008BD380D0020034B044A18609378BC
:101BC00043F0020393707047380D00209401002009
:101BD00008B50649064821F00701C1F1005202F597
:101BE000802206F019FC002008BD00BF2B48002011
:101BF0003C0D00200E4A0123C2F840354FF08042D0
:101C00004FF08051C2F87835D1F83001082808D15A
:101C1000D1F83411052904D80648415C09B1C2F84D
:101C200038364FF080430122C3F8802500207047EA
:101C300000E00140969C000020B1034B800143F07E
:101C400001031847704700BFE097000001F05CBD3A
:101C5000054B0122C3F8002590F8761009B1DA602F
:101C600070471A605A60704700700040087970B57C
:101C700000F01F04072C20D80B780B2B1DD8DFE8B1
:101C800003F0070707071C061C1C1F211C23042345
:101C90004A78032A1AD0042A0FD100254A8844F230
:101CA0000A06B24246D013D844F20306B2423DD0EF
:101CB00044F20506B2423BD0E2B36FF0150034E0C7
:101CC0000523E5E70623E3E70723E1E70125E5E749
:101CD00044F21406B2422FD044F22806B2422DD06C
:101CE00044F20F06B242E8D10322C0F340101B02B7
:101CF00043EA005343EA053343EA0243220102F177
:101D0000804202F5E0420020C2F81835230103F1B9
:101D1000804303F5E0438A79C3F81425C3F810051E
:101D2000074B4A79234483F8902070BD0022DCE7FA
:101D30000122DAE70222D8E70422D6E70522D4E717
:101D400000000020F7B50D464FF0FF3356484FF026
:101D5000FF3202F0C3FE6E68731EFE2B3CD80023D8
:101D60005248534F1A4626FA03F111F0010126D0CA
:101D700017F803C0BCF1000F2ED000EB031E6C7CE3
:101D8000DEF81815003C18BF012421F0807141EAEB
:101D90000461CEF8181503F151010901013240F830
:101DA00001C0D2B20133082BDDD12B7C083B062BBE
:101DB00012D8DFE803F009111D1119111B0003F1FE
:101DC000510424010151EDE700233849012AC1F8EB
:101DD000F0356B7C0ED97BB16FF01504324802F000
:101DE00059FE204603B0F0BD0223EEE70323ECE7E3
:101DF0000123EAE7082BEFD8C1F8F435296853002E
:101E000011B1898901FB0333E968994249D3274B12
:101E1000A968C3F82C162F46C3F830260FCF254CDF
:101E200004F164060FC63B683360002626662B6803
:101E3000274693B30FCB04F1780585E80F0065665C
:101E4000A4F8886048B3BFF35B8F57E8003F47E8CA
:101E50000062002AF9D1BFF35B8F1749A56F174ABB
:101E60004FF400400F463146E5FB00710023384631
:101E7000FEF7CAFB0022CDE90001002304F10800AF
:101E800003F020FB0E484FF0FF324FF0FF3302F01B
:101E900025FE00B12066246EA0E70648FFF7D8FEB5
:101EA000F0E76FF00B0499E740000020007000405D
:101EB00090000020000000203F420F0040420F0031
:101EC0005000002010B50E4B0024C3F80441D3F895
:101ED0000421C3F81041D3F810211222C3F80423BF
:101EE0000720FFF775FC224601210720FFF7A0FC21
:101EF0000448836C13B9403002F0CCFD002010BDC3
:101F0000007000400000002038B52E4BD3F80421AB
:101F1000002A49D00022C3F80421D3F804112A4C26
:101F200001219960C3F80025636E2546BBB3E36FBA
:101F3000B4F8882033B104F164019847012814D023
:101F4000022827D0B4F88830B4F884209A4221D9E6
:101F50000133A4F888301B4BD3F82C26D3F8341661
:101F600089B202EB4102C3F82C26A36F23B9BDE866
:101F700038401548FFF76CBEBFF35B8F55E8003F54
:101F80005A1E45E800210029F8D1BFF35B8F012BD1
:101F9000EDDC38BDA36F13B10C4807F0D9F90C483C
:101FA000BDE8384002F076BDD3F810110029F0D01A
:101FB000C3F81021D3F8102101229A601A605A60E8
:101FC000E7E700BF0070004000000020080000208C
:101FD00050000020084B70B5C31A0D4607499B10EE
:101FE000044659430648402206F0B8FB2B460146FA
:101FF0002046BDE8704018475C0D0020B76DDBB689
:102000006495000073B50C4C0C4A4023041B0093EC
:102010000D460B460A49A41061430646094806F0DE
:10202000CAFB011E05DA30462B4602B0BDE87040FF
:10203000184702B070BD00BF5C0D0020238800006F
:10204000B76DDBB664950000002270B5012104462F
:102050001046FFF7EDFB0F4801F0E0FC0E4B9842F5
:1020600015D101F0EBFC26690C49304606F061FA07
:1020700000280BDB012535642469084904F11C00A4
:1020800006F057FA002801DBE564002070BD6FF010
:102090000400FBE7D52000000000AD0B8C98000089
:1020A00070B501460C2309484B43C418D4E90E56B9
:1020B000403300221844A26306F03DFB2DB13246A6
:1020C0002B460348BDE87040184770BD5C0D0020EA
:1020D0006495000010B1012804D07047034B1B6CBD
:1020E0005B0701D1FFF7DCBF704700BF5C0D00202C
:1020F00008B54FF02003EFF3118183F31288BFF38B
:102100006F8F124A136843F002001060DA0708D498
:1021100081F31188BFF36F8F0120BDE8084001F003
:102120009FBC4FF08043D3F80C24D3F80C34DB076A
:10213000EED5074806F0FFFA81F31188BFF36F8FE1
:102140000020BDE80840FFF7ABBF00BFAC0D00208A
:102150009C0D00201FB500220123CDE90223094A6E
:10216000CDF800D06B46CDF804D006F053FB002824
:1021700005DB4FF480420023684602F0AFFC05B057
:102180005DF804FB4188000010B54FF02003EFF329
:10219000118483F31288BFF36F8F074A136823F00B
:1021A0000201DB07116002D4012006F08EFE84F3E9
:1021B0001188BFF36F8F10BDAC0D00202DE9F041E9
:1021C0003849BFF35B8F0746012251E8003F41E8E1
:1021D00000200028F9D1BFF35B8F33B9324933486F
:1021E0004B60CB608A6006F0B7F97B1E012B2BD8C1
:1021F000012F07D14FF08043D3F81C3403F00303C1
:10220000012B21D006F048FF0546F8B9284B1B7872
:10221000E3B14FF080430222C3F808230646DFF8FB
:1022200094804FF08044D4F81824D4F81834D203A2
:1022300016D503F00303012B01D0012F10D15DB39C
:1022400086F31188BFF36F8FBDE8F0814FF0200354
:10225000EFF3118683F31288BFF36F8F0125DEE75A
:10226000ADB13046FFF77AFBD4F81835002BDAD140
:10227000D4F80421002AD6D0C4F80431D4F80431AB
:102280000123C4F81835C8F88031A360CBE70021DA
:10229000212002F02BFFE7E74FF080430222C3F832
:1022A0000423D1E7580D0020480D0020780D0020B0
:1022B000231E002000E100E008B5074806F093FE69
:1022C00038B10648FFF778FC0448FEF7ABFD002064
:1022D00008BD6FF01200FBE7C8950000E122000086
:1022E0000A2838B5074D044604D1AB680D21DB69D7
:1022F00028469847AB680348DB69E1B29847204617
:1023000038BD00BFC89500004FF02003EFF31182E5
:1023100083F31288BFF36F8F094BD3F8001161B1BB
:102320000021D3F80805C3F80011D3F80031C0B27A
:1023300082F31188BFF36F8F70476FF00A00F7E7E1
:1023400000D00040F0B5034610469C7893F803C0D7
:102350004FF02005EFF3118285F31288BFF36F8FE2
:102360001F7893F801E0E41B04EA0C04A04288BF44
:10237000A0B23E180CEA06063D461E7082F3118894
:10238000BFF36F8F0A188A4217D177450DD14FF0EE
:102390002001EFF3118281F31288BFF36F8F197858
:1023A000597082F31188BFF36F8F1B79241AA342EF
:1023B00022BF064B01221A60F0BD5E190135767905
:1023C00001F8016B05EA0C05DDE700BF00D0004015
:1023D000DB432DE9F04713F001050E46144604D007
:1023E0002348FFF7AFFFBDE8F087A2B34FF020030B
:1023F000EFF3118883F31288BFF36F8F0D20FFF77F
:1024000009FA07460D20FFF7F1F988F31188BFF3A9
:102410006F8FDFF860A0DFF86080CAF80051DAF84B
:1024200000314FF400590123CAF800302546C8F89E
:102430008091DAF8003183B1FFF766FF031EC8F818
:102440008091F6DB013DADB27355002DF1D117B18E
:102450000D20FFF7BDF92046C5E74FF02003EFF34D
:10246000118083F31288BFF36F8FFFF777FAE0E7ED
:10247000D00D002000D0004000E100E02DE9F04147
:10248000124F0D46144607F1350814B92046BDE831
:10249000F0814FF0FF334FF0FF32384602F01EFB61
:1024A000224629464046FFF74DFF0646384602F0D1
:1024B000F1FA3EB94FF0FF324FF0FF33044802F01B
:1024C0000DFBE6E7A41BA4B23544DEE7B00D002007
:1024D000C00D002038B5184C01221146204606F0E8
:1024E000FCFD0122002104F1100006F0F6FD40F28F
:1024F000074323874FF0706323620C2384F8243052
:1025000000250E4B84F83550E586D3F8042522F0DB
:102510000102C3F804250121C3F80051D3F80021BA
:10252000C3F804132A4619600D20FFF781F90D2026
:10253000FFF74EF9284638BDB00D002000D000400E
:1025400010B5FFF7E1FE002820DB174B93F822209F
:1025500093F8214093F82310141B31EA0404C0B20D
:102560000DD193F8372093F8364093F83810141BA8
:1025700031EA04040BD10D4B01225A600EE09C1885
:102580000132114084F8250083F8221010BD9C18F8
:102590000132114084F83A0083F837100448BDE84E
:1025A000104002F077BA00BFB00D002000D000400C
:1025B000C00D0020F0B54068057B01F01F0444EA1F
:1025C0004514056987B0002D64D0B2F5001F00F1F5
:1025D000100506D12146284606F0F7FC002007B07A
:1025E000F0BD01AE0027B2F5800F0197776039D1B9
:1025F000B3F1007F14BF052304238DF804300023BA
:10260000CDE904630393836823FA01F111F001011A
:102610001AD1B2F1A07F17D104F01F03620903F5AC
:10262000E0732AD0012A3BD11F4A52F82330DB073E
:102630000AD40DF1030632462146284601F0EEFC8D
:102640001A4B98421CD0029603AA2146284601F054
:10265000A7FB174B984220D101222146284601F0C2
:1026600045FDBBE7B3F1C06F05D0B3F1007F14BFE8
:1026700001230223C1E70323BFE74FF0A042D4E7C1
:102680003146284601F02CFD094B9842DBD06FF013
:102690000B00A4E76FF08500A1E76FF015009EE73F
:1026A00051F82330FFDE00BF000300500400AD0BE3
:1026B0000000AD0B38B545682B69B3B1103528461D
:1026C00001F0FEFC044680B90146284601F0C0FC3A
:1026D000084B98420BD108492246284601F098FC45
:1026E000224605210620FFF7A3F8002038BD6FF031
:1026F0000400FBE70000AD0BFD260000420970B5A9
:10270000034602D0012A17D070BD0D4E32695168C0
:102710000029F9D003F01F0301250C689D40002912
:10272000F2D08A682A4002D04B68304698472CB1D4
:10273000236821461C46F2E7024EE7E72346F8E706
:102740008C950000789500002DE9F043466840F232
:102750000635D006337B87B002EA050554BFC2F3C5
:102760004010032001F01F07B5F5837F144647EAA8
:1027700043178DF8030044D00FD8062D18D007D882
:10278000B5B1022D3FD06FF0150007B0BDE8F08362
:10279000B5F5807FF7D101250AE040F2022295428B
:1027A00033D0B5F5407F32D0B5F5007FEBD10225AF
:1027B00022032ED5726801238B40C2F80835326996
:1027C00092BB07F01F037F092BD0012F79D13F4A1D
:1027D00002EB830284F48033D2F80017C3F3004382
:1027E000C4F3404444EA430421F4E16144EA800430
:1027F00021F0070144EA05230B43C2F8003700200B
:10280000C3E70725D4E70425D2E70525D0E703254C
:10281000CEE7630341BF012372688B40C2F80C35D9
:10282000CDE74FF0A042D3E710360DF10202394652
:10283000304601F0F3FB14F4403F80460CD139469A
:10284000304606F0C0FB224B9845D8D19DF80210C7
:10285000304601F03FFCD2E701AB4FF0000903AA7C
:1028600039463046CDE90439CDE90199CDF80C90CF
:1028700001F096FA164B984285D114F4003315D026
:102880009DF803308DF80E3084F48034C4F3004496
:102890004B4603AA394630468DF80C508DF80D4052
:1028A00001F038FB0A4B9842CDD06CE7CDE90433F8
:1028B00003AA0DF1030339463046039301F070FA81
:1028C000F0E703F5E07352F82330FFDE0003005019
:1028D0000000AD0B036803F01F025B09026004D027
:1028E000012B034818BF002070474FF0A0407047ED
:1028F000000300502DE9F04FDFF89481DFF8949148
:1029000085B01546824600EB8101514503D1002078
:1029100005B0BDE8F08FDAF80030DE04C3F34322DF
:1029200003F07F0400F1AE807F2C4FEA134318F8C8
:10293000027008BF4FF0FF34222B00F2A680DFE8C0
:1029400003F012191F22252B22A4A4A4A43C68A4DE
:10295000A4A4A4A4A4A4A4A46B818487A4A4A48AEA
:102960009295989B9E00C5F80C45601C5ED10AF1BB
:10297000040ACAE7C5F81445621CF8D000265FE0D7
:10298000C5F80845F1E7C5F81045F5E7631CC5F83B
:102990000845ECD0002604E0661CC5F80C45E6D0DE
:1029A000012603A80394FFF795FF039B4FF0010B4B
:1029B0000BFA03F3C0F80C3508E0C5F80845002F02
:1029C000DAD1631CD3D00026B3460627DAF80030EC
:1029D000019303F40052002A03A81CBF4FF0000B20
:1029E00001260394FFF776FF039A019B00EB820018
:1029F000C3F3C114D0F800273B0243EA840343EA3F
:102A00000B0302EA0902134343EA4603C0F8003706
:102A1000ADE7C5F80C45D2E7C5F86045601CDAF8AB
:102A20000030A4D0C3F38033002BB9D003A80394A3
:102A3000FFF750FF039B012606FA03F3C0F80835A1
:102A4000B346C3E7C5F86445E8E7C5F86845E5E778
:102A5000C5F86C45E2E7C5F82445621C87D04FF005
:102A6000000B0126B2E7C5F828457EE7C5F83045DA
:102A7000F3E7C5F83445F0E7C5F83845EDE7C5F8A4
:102A80003C4572E76FF0150042E76FF085003FE7C5
:102A9000F49C0000F0F8FCFFF7B51D46436804699C
:102AA000D3F800C006464FF02003EFF3118783F3FD
:102AB0001288BFF36F8FE368D86838B187F3118845
:102AC000BFF36F8F6FF00F0003B0F0BDDA60E36803
:102AD00099604FF48003CCF8043301F06043B3F104
:102AE000005FE36811D11961E3685A6121463046FD
:102AF00006F0AFF887F31188BFF36F8FE37A012BED
:102B000001D16B1C06D10020DEE7D861204606F01B
:102B100019F8EBE70B480C4AE46825EAE5754FF431
:102B2000004600210023C5FB0601FDF76DFD2034A2
:102B300002460B4600200021CDE90001204602F0AC
:102B4000C1FCE0E73F420F0040420F002DE9F74390
:102B50000746002201210220FEF76AFE0220FEF74E
:102B600037FE7E683D6934684FF00008C4F8008580
:102B70002F60D6F80C9001AA4146484605F0E5FEC4
:102B8000002839DB019BD9F8002019791868FFF774
:102B9000B1FE002830DB6B7AD7F810C0012B03D0D0
:102BA000032B27D14FF01008AB7A032B22D1E97AFF
:102BB00009B101291ED12A7A12B1022A1AD10E2294
:102BC0006B687868B3F5164F006800F0E88034D879
:102BD000B3F5165F00F0E6801AD8B3F5966F00F0F3
:102BE000E3800CD8B3F5967F00F0E180B3F5167F53
:102BF00000F0E0806FF0850003B0BDE8F083B3F52E
:102C0000166F00F0DA80B3F5965FF3D1804B45E0A4
:102C1000B3F5E14F00F0D48008D8B3F5615F00F060
:102C2000D180B3F5964FE5D17A4B37E047F6122EB7
:102C30007345DFD14FF4000330E0B3F5613F00F09E
:102C4000C38015D8B3F5963F00F0C1800AD84DF681
:102C5000C02E734500F0BD80B3F5614FCAD14FF46B
:102C60006B031BE0B3F5E13FC4D14FF0EB7315E00C
:102C7000B3F5612F00F0B0800AD8DFF89CE173450E
:102C800000F0AD80B3F5E12FB4D14FF0E86305E07B
:102C9000DFF888E17345ADD14FF08053C0F824359B
:102CA0007B6841EA08011B680A43C3F86C25D5E933
:102CB00001010CF1040383E803007368990713D53D
:102CC00005F11C0001F03EFB554B984240F09C8002
:102CD000287F04F10C0204F5907106F0ECF82B7FCC
:102CE0000120984000F032FEEB68002B7AD07B6820
:102CF000D7F810801B680422C3F80423D8F80C10FE
:102D00000122C1F8C0204749C3F804130821C3F8C1
:102D10000015D3F84C11A1B15A60D3F844211AB967
:102D2000D3F82421002AF8D00022C3F84C21D3F88C
:102D30004C11C3F81021D3F81011C3F84421D3F873
:102D40004431D8F80C0038490022803006F0F4FAFB
:102D5000D8F80C30C3F8B480D8F80C0033490022FE
:102D6000203006F0E9FAD8F80C30C3F854807368C4
:102D70009A075CBF4FF48073C4F804337368DB06B2
:102D800044BF4FF48003C4F804336B69C4F844357E
:102D900000200123C4F84805A360E3602CE74FF44A
:102DA0001D037BE7224B79E74FF49E2376E74FF430
:102DB000A03373E74FF41C3370E74FF41D236DE726
:102DC0001C4B6BE71C4B69E74FF06C7366E71B4BC2
:102DD00064E74FF4650361E74FF070635EE74FF01F
:102DE00080635BE70823C4F80035337A002BBED13B
:102DF000C4F81031D4F81031AB69C4F8343501236C
:102E0000C4F838352360B2E76FF00400F4E600BF81
:102E100000B0130000A04E0090D0030040420F000D
:102E20000000AD0B10020A009F8D0000738E0000A1
:102E30000050270000C0750000F03A0000903A01F1
:102E40002DE9F041044605690E4606F025F9B0B9B2
:102E50002A4B1B789BB16427606805F0EAFE0028C6
:102E600038D1012006F025F8013FF5D100212120BD
:102E700002F03CF9EFE781F31188BFF36F8F4FF059
:102E80002003EFF3118183F31288BFF36F8FD4F81F
:102E9000048040460F4605F0CCFE0028EBD0EB68DE
:102EA0005BB1DA684AB1D3F8BC20002A05DAD8F859
:102EB0000020D2F84C25C3F8BC206B691E706969EC
:102EC0000122204605F05BFD87F31188BFF36F8F69
:102ED000BDE8F0814FF02003EFF3118183F31288F6
:102EE000BFF36F8F60680F4605F0A3FE0028E4D1A2
:102EF00081F31188BFF36F8FB8E700BF231E002056
:102F00002DE9F04143681D680369D5F8081188B0C0
:102F1000044669B10022C5F80821D5F80821DA680D
:102F2000D2F8B8300133C2F8B83008B0BDE8F0814B
:102F3000D5F8243123B3C5F82411D5F824314368DA
:102F40001B68D3F88064C3F88064142203A806F0D9
:102F5000AFFA0623F2078DF80C3000F10C81B307AD
:102F600000F10B81770700F10A8106F00806204680
:102F700003A98DF8106005F02AFD204605F0BDFD7F
:102F8000D5F81031002B33D0D5F80433D8062FD51F
:102F90004FF00008C5F810812669D5F81031636834
:102FA0001F68F368012283F8CE20F068803006F0B5
:102FB000CFF9F268D7F83C1592F8C93082F8C98089
:102FC000F268106E1B1A0B44106F23EAE371084479
:102FD0004345106702DD204605F000FDF16891F8D9
:102FE000CA3003F0FF02002B40F0CB8081F8CE20E6
:102FF000D5F84C3183B3D5F810616EBBC5F84C6180
:1030000014222769D5F84C31314603A806F050FA4E
:10301000032303A920468DF80C3005F0D8FCFB688B
:103020005A6F511C18D0DA67FF688F49B86F8F4A02
:1030300020EAE07C8E464FF400403146CCFB00E1B4
:1030400000237046FDF7E0FA02460B46CDE9000189
:1030500007F1800002F036FAD5F8443163B3D5F8B1
:1030600010614EBBC5F844612769D5F84431F96851
:10307000D4F804805831204605F0C9FCF968204690
:10308000643105F0C4FCFB6883F8CA60FB6893F800
:10309000CB2032B183F8CB6060683246314605F010
:1030A00069FDD8F80430D80603D50221204605F082
:1030B00096FD204605F0C3FCD5F82031DBB1D5F8EC
:1030C0000433D90517D563681B684FF02001EFF36F
:1030D000118281F31288BFF36F8FD3F8201131B1C1
:1030E0000021C3F82011D3F820110121D96082F307
:1030F0001188BFF36F8FD5F85831002B3FF415AF0F
:10310000D5F804335A027FF510AF63682569D3E917
:103110000073DB0666D4EB689B68002B3FF405AFB9
:103120004FF02003EFF3118283F31288BFF36F8F08
:10313000EB68D3F8BC100029ACBFD3F8BC60D7F85B
:103140004C6582F31188BFF36F8FEB6893F8CD2045
:10315000002A54D04FF02003EFF3118683F3128836
:10316000BFF36F8F2946204605F073FD86F3118863
:10317000BFF36F8FD9E60126F9E60226F7E60426AB
:10318000F5E65831204605F042FC4FF02003EFF3FE
:10319000118183F31288BFF36F8FF3685A6EF2B117
:1031A0009A65F3689A6EDA65F26800235366F268EE
:1031B0009366F2681366D7F84C310BB901233B6074
:1031C000D7F8003223F02003C7F8003281F31188CA
:1031D000BFF36F8FF368002283F8CE2008E7012346
:1031E0007B60F3E74FF48003C7F8083301212046E2
:1031F00005F0F5FCEB68DB68002B8CD195E699684F
:103200001A6991420CD05969DA69B142324428D125
:10321000DA61284605F096FC00289BD1EB68DE6950
:10322000E868203006F094F81422002103A806F084
:103230003FF9EB689A68CDE90426DB689E421CBF23
:1032400001238DF80C304FF48003C7F80833EA6887
:1032500000239360EA6803A9D360204605F0B7FB1A
:1032600063E61646DCE700BF3F420F0040420F0016
:1032700070B5012383400E4ABFF35B8FDC4352E8F5
:10328000001F01EA040542E80056002EF7D1BFF303
:103290005B8F4FF4803282400648C0F80823BFF3AA
:1032A0005F8FBFF36F8F0B4214BF0120002070BDF2
:1032B000100E00200010014070B40E49D1E9003416
:1032C000D01AC31844F1000422F07F46C1E900344B
:1032D000A6F50013B3F5400F09D2074B1B681A0A75
:1032E0001B069C19054B42F10005C3E9004570BC63
:1032F00001F0F2BFB8060020140E0020C006002026
:1033000011B3BFF35B8F0123104A834052E800CF13
:103310004CEA030C42E800C10029F7D1BFF35B8FF0
:103320000B4A4FF480338340C2F80433094BBFF398
:103330005B8F1B68BFF35B8FC340DB0742BF064B4D
:103340004FF40032C3F80021704700BF100E002078
:10335000001001400C0E002000E100E00D4B186849
:10336000010A0006BFF35F8F0B4BD3F80435181822
:1033700041F10001B3F5801F0AD2084BD3E90023C5
:10338000904271EB030303D210F1807041F1000110
:10339000704700BF140E002000100140C00600203E
:1033A0002DE9F04F85B016461F469DF840A0044613
:1033B000FFF75EFF0190FFF7D1FFB04271EB07030B
:1033C00054D23E4B301A67EB0101984271F1000173
:1033D0004FD23B4B03EB0413D3E902239F4208BFB8
:1033E00096425ED037494FF4803804F1500508FA10
:1033F00004F8AD00C1F848832046ADB205F03DFDAC
:1034000026F07F4B05F1804504F5A87305F5883556
:10341000DC464FF003090293029A2CF07F4341F8F7
:103420002230C1F84483D1F80435274A6FF00200F6
:10343000C01A604420F07F40904232D9286868B1B9
:10344000D1F804350393A3EB0B0020F07F40B0F5D7
:10345000000F26D9204605F010FD039BBAF1000F9E
:1034600007D109EB030C09F10109D5E7BAF1000F07
:1034700009D06FF0150520460199FFF741FF284656
:1034800005B0BDE8F08F0123104ABFF35B8FA34066
:1034900052E8000F184342E800010029F8D1BFF3B9
:1034A0005B8F07490E98230101EB0412C8500F9B54
:1034B0005360C2E902670025DDE700BF010080001C
:1034C000A806002000100140FDFF7F000C0E002028
:1034D0007FB51C4C1C4BC4F80833C4F848331B4B55
:1034E00000254FF0FF304FF0FF31C4F80855C3E915
:1034F00002014FF48033C4F80433154B02264FF415
:1035000000320121C4F804631120C3F880212A4647
:10351000FEF78EF91120FEF75BF90E4A0123A36036
:10352000236013600C4B0D4A0093CDE90155002335
:103530002846FFF735FF3046FEF740FE284604B028
:1035400070BD00BF0010014003000F00A80600205E
:1035500000E100E0100E0020B9320000FFFF7F0004
:103560002DE9F7432F4CD4F8043399070BD5D4F841
:10357000043143B12C4A0023C4F80431D4F8043197
:10358000136801331360D4F80433DA032AD5BFF388
:103590005B8F264B53E8002F22F0010143E8001017
:1035A0000028F7D1BFF35B8FD30702D4D4F84031A2
:1035B000C3B10025C4F84051D4F84031FFF7CEFE26
:1035C0004FF02003EFF3118283F31288BFF36F8F64
:1035D000174BD3E90267B042B94106D282F3118892
:1035E000BFF36F8F03B0BDE8F0834FF0FF384FF0AB
:1035F000FF39C3E90289D3E900101D604FF480331D
:10360000C4F84833C4F84051D4F8403182F31188EB
:10361000BFF36F8F0029E5D0009032463B46284625
:103620008847DFE700100140140E00200C0E002038
:10363000A806002030B5431C124C85B005D084424A
:10364000A8BF0446012CB8BF0124FFF787FE0E4B2C
:103650000C4DD3E90013401AB0F5000F10D2221818
:10366000AA4228BF2A4652184FF00000074900918D
:10367000CDE9010043F10003FFF792FE05B030BD34
:103680002A46F0E7FFFF7F00B8060020B9320000AD
:1036900008B5FFF763FE024B1B68C01A08BD00BFE8
:1036A000B806002010B5084C012363601120FEF716
:1036B0009DF8064BC4F80833C4F84833044B4FF464
:1036C0000032C3F8802110BD0010014003000F003C
:1036D00000E100E04FF08053D3F83021082A06D1F2
:1036E000D3F83431052B02D8024AD05C7047002051
:1036F000704700BF109D0000024AD2F80034002B32
:10370000FBD0704700E0014010B54FF08053D3F874
:103710003021082A4ED14FF080420021C2F80C110E
:10372000C2F81011C2F8381502F54042D3F804145B
:10373000C2F82015D3F80814C2F82415D3F80C14D5
:10374000C2F82815D3F81014C2F82C15D3F81414A5
:10375000C2F83015D3F81814C2F83415D3F81C1475
:10376000C2F84015D3F82014C2F84415D3F8241435
:10377000C2F84815D3F82814C2F84C15D3F82C1405
:10378000C2F85015D3F83014C2F85415D3F83414D5
:10379000C2F86015D3F83814C2F86415D3F83C1495
:1037A000C2F86815D3F84014C2F86C15D3F8443445
:1037B000C2F87035FFF78EFF18B13A4B3A4AC3F89A
:1037C0008C26FFF787FF18B1384BFB22C3F818256A
:1037D000FFF780FF70B14FF080414FF08053D1F878
:1037E000E42ED3F8583222F00F0203F00F031343F4
:1037F000C1F8E43EFFF76EFF20B12D4B4FF400728D
:10380000C3F840264FF08053D3F83031082B1AD13B
:103810004FF08043D3F80024D20744BF6FF0010279
:10382000C3F800244FF08053D3F83431052B02D86D
:10383000204AD35C3BB14FF01023D3F808224FF05D
:103840008043C3F858254FF01023D3F80022002AF4
:1038500003DBD3F80432002B22DA174901234FF09F
:103860001020C1F804351224FFF746FFC0F80042CB
:10387000FFF742FFC0F80442FFF73EFF0023C1F804
:103880000435FFF739FFBFF34F8F0C490C4BCA6863
:1038900002F4E0621343CB60BFF34F8F00BFFDE73C
:1038A00010BD00BF005000404881030000F0004000
:1038B000009002400A9D000000E0014000ED00E0A1
:1038C0000400FA0530B50468CCB1BFF35B8FB4FADD
:1038D00084F3C3F11F03DBB201229A4024EA0202FF
:1038E00050E8005FA54204D140E8002CBCF1000F75
:1038F000F6D1BFF35B8FE6D102480B7030BD0248B2
:10390000FCE700BF0000AD0B0200AD0B10B5036873
:10391000CB40DB0714D401238B400268BFF35B8FDD
:1039200043EA020150E8004F944204D140E8001CF1
:10393000BCF1000FF6D1BFF35B8FEED1014810BD93
:103940000148FCE70000AD0B0400AD0B014BC3F8D0
:103950000405704700F00140F7B5044618B101288E
:1039600023D003B0F0BD4FF080430222C3F80823F8
:103970000122DA60C3F80401D3F8043106460123BA
:103980008DF8073042F210754FF08047D4B1012C0A
:10399000E7D1D7F80C3403F48033AEBB83B30120F6
:1039A00005F087FA013DF4D12AE04FF08043002270
:1039B000C3F808035860C3F80021D3F800310DF1B3
:1039C0000706DCE7D7F8183403F480333EB9002B40
:1039D000C7D0012005F06DFA013DF3D1C1E7D7F85A
:1039E000182402F003023260002BBAD09DF80700C1
:1039F000012803D105F05DFA013DC7D1012CB0D1FA
:103A0000054B00225A71ACE7D7F80C2402F00102F2
:103A10003270002BEAD1F3E7180E0020044B1A791C
:103A200022B9012218609A80024870470248704704
:103A3000180E00200000AD0B0C00AD0B08B5074BB5
:103A40001B682BB10020FDF7E5FE08B9FDF7C0FEAD
:103A50004FF080430022C3F8182508BD180E00203F
:103A600010B510B1012843D010BD4FF08043D3F8FA
:103A70001814D3F81824C80321D502F00303012B2E
:103A800004D013B10020FFF767FF00234FF08042FE
:103A90000220C2F8183508224FF4827303F18043E4
:103AA0000021196002F180421C6801241460154A4B
:103AB00012680AB34FF08043C3F80403D4E7D3F885
:103AC0001424D107E1D5D3F81C249207DAD40D4A87
:103AD00012681AB10222C3F80423C5E7D3F80421FF
:103AE000002AFBD00022C3F80421D3F80431BBE73D
:103AF00000224FF48073D1E71A68002AFCD01960C5
:103B00001B68B1E7180E002010B54FF08043D3F8C2
:103B100000216AB10022C3F80021D3F8002101225C
:103B2000C3F80823114B587910B95A711B6898478C
:103B30004FF08043D3F8042172B10022C3F804216E
:103B4000D3F80421D3F81824D3F81824920704D109
:103B50000122C3F818259A6010BD0222C3F8082379
:103B6000024BBDE810401B6801201847180E0020CA
:103B7000036803F01F025B09026004D0012B0348B5
:103B800018BF002070474FF0A0407047000300505E
:103B9000034A430900F01F00D35C1844C0B27047C9
:103BA000169D000070B50546FFF7F2FF0C4C08307B
:103BB0000E4634F81030DA0508D5C3F3432304EB7E
:103BC000C302284654F8333052689847A3682BB193
:103BD000E26831462846BDE87040184770BD00BF16
:103BE000C401002008B5FFF7D3FF034B083033F8BA
:103BF0001000400B08BD00BFC401002008B5FFF74E
:103C0000C7FF034B083033F81000C0F3400008BD75
:103C1000C401002008B5FFF7BBFF034B083033F8A1
:103C20001000C0F3401008BDC4010020034611F08D
:103C3000010010B5CCB20DD1A207C4F3400012D5DB
:103C4000094AD2F820055860C2F82005003818BF8C
:103C5000012008E04FF0A041D1F820251A60C1F8FA
:103C60002025002AE8D010BD0003005010B5FFF752
:103C70008FFF124A083032F81030D9051CD5C3F333
:103C8000432123F4F85322F8103002F10E040020EF
:103C900034F8023F13F4807F03D0C3F343239942E7
:103CA0000AD001303028F3D1002342F831300448E3
:103CB000BDE81040FFF72ABE10BD00BFC4010020C0
:103CC0003C020020F0B505460020044601260746C8
:103CD0008C420BD1114BD3F87C2132B10022C3F8B6
:103CE0007C21D3F87C3140F00040F0BDE3B29B0072
:103CF00003F580729B0806FA03F31D420BD002F114
:103D0000804202F5C042D2F800C0BCF1000F02D0E0
:103D10001760126818430134DAE700BF0060004002
:103D2000F7B506460846FFF733FF194F00F10805BF
:103D30000C4637F81530DB0727D5304605F01FF95C
:103D40002046FFF767FF40B12046FFF74BFF316881
:103D500000F5A270002341F820302046FFF786FFCF
:103D6000002301A827F815300194FFF701FF019BFC
:103D700000EB8300074BD0F80027134043F0020309
:103D8000C0F80037044803B0F0BD0448FBE700BFAB
:103D9000C4010020F0F8FCFF0000AD0B0400AD0BE7
:103DA0002DE9FF41164680460846FFF7F1FE0D4615
:103DB0003168044609B32846FFF720FF18B12846AA
:103DC000FFF728FF10BB0023CDE900338DF80E303C
:103DD0008DF80F300DF10F020B4628460DF10E0144
:103DE00005F075F8474A04F1080132F8113023F064
:103DF000020343F0010322F81130736863B32846CD
:103E00001F785968FFF7FAFE10B1D1B13E4826E09D
:103E10003C4A04F1080032F8103023F02003DB04A0
:103E2000DB0C22F8103061B1032FEFD871684968BC
:103E300091F800C0D8F80010A7B90CF5A27C41F8A1
:103E40002C70304A04F1080132F8113023F01C03C1
:103E500043EA870322F81130B3684BBB2B4804B008
:103E6000BDE8F08101EB8C0143EA4C33D1F810E559
:103E70002EF0030EC1F810E5D8F8001001EB8C0EFF
:103E800043F02003DEF8101522F8103021F44F31F2
:103E900021F44071CEF810152902DEF8108501F4E6
:103EA0007C5141EA074141EA0801CEF81015C8E704
:103EB000D3E900672846FFF7D9FE002ECED0114D7A
:103EC000D5E90023964203D19F4201D1002209E0A7
:103ED0000F480DF10F01FFF7F5FC0C4B9842BED1D6
:103EE0009DF80F2045F8326005EBC20308345F608F
:103EF00035F8143043EA422343F4807325F8143034
:103F0000ACE700BFC40100200400AD0B0000AD0B06
:103F10003C0200202DE9F0430C4685B08046204647
:103F200011461E46FFF734FE054629B32046FFF72B
:103F300065FE18B92046FFF76DFE18BB314F05F13D
:103F4000080937F8193013F01C0F02D04B78012BF9
:103F500018D001238DF80F300023CDE900134A1C3F
:103F60008B1C20460DF10F0104F0B1FF37F819301A
:103F700043F0030327F81930002E41D02046FFF705
:103F80003DFE18B9204805B0BDE8F08396F800C0A2
:103F9000D8F800301B4F0CF5A272002143F8221014
:103FA00005F1080237F8121021F02001C904C90CEC
:103FB00027F8121075781DB3D8F80000B67800EB1A
:103FC0008C002D04D0F8103523F4991323F4F85302
:103FD000C0F81035230203F47C5305F44035360550
:103FE000D0F810E52B4306F4801641EA4C313343F8
:103FF00041F0200143EA0E0327F81210C0F81035F3
:104000000248C0E7C40100200400AD0B0000AD0B66
:10401000014BC3E902127047C401002010B50846E5
:104020001446FFF7F7FD50B10846FFF7B1FD054B09
:10403000083033F8103004485B0B237010BD034880
:10404000FCE700BFC40100200000AD0B0400AD0B75
:1040500070B5184E96F8804005464CBB214660224C
:1040600006F1100005F024FA2D68306F21468842D1
:1040700012D10023C5F87C3145F30730D5F87C31E7
:10408000FDF7A6FB4FF00043C5F804330A480123AF
:1040900086F88030B36770BDCBB29B0003F58072A9
:1040A0007C2B08BFAC5001F1010108BFAB58DEE723
:1040B0000248F0E7C40100200000AD0B0C00AD0B7E
:1040C000034B93F88000003818BF0120704700BFF1
:1040D000C40100200148FFF719BC00BF38020020CE
:1040E0000148FFF7EFBB00BF3802002073B505465B
:1040F00008460C461646FFF78DFD00B30846FFF74D
:104100007DFD0146D8B92046FFF76CFD04B2A4003E
:1041100004F580720346286881502968825821443A
:10412000D1F8102542F00102C1F810252EB12968FE
:10413000012202FA03F3C1F8043302B070BD204635
:10414000FFF726FD0F4B083033F81030C3F382031E
:10415000042B12D0052B12D001A80194FFF708FD03
:10416000019AD0F81035D34003F00103991C204682
:1041700002B0BDE8704004F0F3BE0321F7E702216E
:10418000F5E700BFC40100202DE9F04F694BDFF8CF
:10419000A881D3F80403D8F87010C0B289B040F0F9
:1041A0000040FFF78FFD051E2FDAC24600235AF8A4
:1041B0007C1F06A8CDE90633FFF738FD5F4B01935E
:1041C0000DF118094FF0000B019A12F8013B019212
:1041D000DA0803F007031AF8022022FA03F3DA07D9
:1041E0001CD409F10409BBF1000F14D0D8F87010E9
:1041F0004FF00040FFF766FDD8F87C1006A8FFF7E7
:1042000015FD0028DAD125F000450124002D79D1D3
:1042100009B0BDE8F08F4FF0010BD5E7484B5B4488
:104220000293D9F800100029DBD0029B91FAA1F18A
:104230001C78B1FA81F141EA44142046FFF7A8FC4A
:104240000830059438F81070C808BB0819F8002029
:10425000039301F00701012303FA01F122EA0102AD
:1042600009F8002005A8FFF783FC059A039B02F5D7
:10427000E072C7F3820650F822205B073746C2F38C
:10428000014224D520463946D6B2FFF78BFC05A85B
:104290000594FFF76DFC059B03F5E07350F82330A0
:1042A000C3F301439E4207D10021204604F058FE8B
:1042B0003146204604F054FE05A80594FFF758FC4B
:1042C000059B012202FA03F3C0F82035A9E7022A70
:1042D0000CD10321204604F043FE06F00503012B18
:1042E000EAD139462046FFF75DFCE5E7022120468A
:1042F000039204F035FE032EF3D0039A032ADBD198
:10430000022EEDE795FAA5F3B3FA83F304FA03F26C
:104310009B0003F1804303F5C04325EA0205D3F86F
:104320001005D3F81015C0F30520C1F30141FFF7C4
:1043300039FC6BE700600040C4010020269D0000AE
:10434000269D000001460148FFF7BCBA4802002044
:1043500008B5144BA8220021184605F0A9F803223D
:10436000026111494261114A8161C2614FF4806268
:104370000262002282624262C26201660C494166A8
:104380001021816603460267C2664267BFF35F8FF2
:10439000084911F8010D98540132102AF9D1BFF3E0
:1043A0005F8F08BD200E0020289D0000231A0020EA
:1043B000131A0020419D000038B54FF02003EFF3A1
:1043C000118583F31288BFF36F8F064B9C6804F04E
:1043D00060FD85F31188BFF36F8F2046BDE838403C
:1043E000FDF786B9CC0E0020104B70B553F8204075
:1043F000013053F82060A64200D870BDD4E90035E2
:1044000095B153B12846984738B10028B8BF40420B
:10441000EB68FF28A8BFFF201870EA68537843F0C4
:10442000010353700834E6E79847FBE788990000DA
:1044300008B50A4B012203201A70FFF7D5FF01F0DF
:104440007BF80420FFF7D0FF00F078F9FCF702FCBE
:10445000034A137B23F00103137308BD231E0020BE
:104460004807002008B50348034A0021121A04F047
:10447000C5FD08BDA8030020281E002070B500233C
:1044800086B00122CDE90423194E1A4D01930F2263
:10449000CDE902321849142303FB005506EBC01680
:1044A00004464FF4C070154B00954FF4A07200FB0A
:1044B0000411304600F0D6F8737B114AEE6023F009
:1044C000040373734FF4046304FB033313446B60FE
:1044D0000C4B2C74BFF35B8F53E8001F013143E892
:1044E0000012002AF8D1BFF35B8F06B070BD00BF89
:1044F000C8060020CC0E0020003E0020A590000041
:10450000C0350020C80E002080B50020A6B0FFF7FF
:104510006BFF2D4B83F308882C4D2D4E6B692D4F6F
:1045200043F400736B610024E02385F82230EC77BC
:104530002C766C76AC7685F820406B6A43F4E023E9
:104540006B6285F82340FDF741F8FDF7F3F94FF072
:10455000FF33AB62EB62FDF795FAFDF72BFA40F201
:104560000113ADF8243006ABB360CDE91E442194AD
:1045700004F038FD0120FFF737FF0220164DFFF74A
:1045800033FF00F029FD154B756105930123144994
:104590000094CDE903434FF400623B46CDE901446A
:1045A000284600F05FF86A7B064622F0040228469F
:1045B0006A7304F0D8FD2046FFF760FF3A463146A3
:1045C0002846FDF79BF900BF003E002000ED00E00B
:1045D000CC0E00203144000048070020429D00001E
:1045E000803F002038B5064C064D0020AC4200D379
:1045F00038BD204604F006FD0028F9DB1C34F5E741
:10460000020300200203002073B50C464FF0200582
:10461000EFF3118185F31288BFF36F8FC5685DB129
:1046200025602B68C360836901338361002081F3B7
:104630001188BFF36F8F11E052EA030603D12560A2
:104640006FF00B00F3E7CDE900230246083000F0DD
:10465000FFFB18B9024B9B685B69236002B070BD19
:10466000CC0E00202DE9F04385B00732994600F1C9
:10467000580322F00706C0E91633109B037306F1B6
:1046800040050423002743730D440F9B8373884622
:10469000C0E9067729468760C7730446FCF716FE13
:1046A00008F140030730C4E9183620F007000E9BDC
:1046B000A06602930D9B01932D1A0C9B00932A4632
:1046C0004B4641462046FDF7E7F8054B67659B687A
:1046D00003B1DB6EE366284605B0BDE8F08300BF9A
:1046E000CC0E0020F0B587B000250595109D0495EF
:1046F0000F9D03950E9D0295DDE912760D9D0195A6
:104700000C9D00950446FFF7ADFFB6F1FF3F08BFD3
:10471000B7F1FF3F05D056EA070305D1204600F068
:104720000DFC204607B0F0BD03493A46334604F17C
:10473000180000F05BFDF4E72592000070B5224CF4
:10474000224D86B02646AE4204F130040AD300F072
:1047500013FC1D4C1E4EAC4220D306B0BDE8704089
:1047600000F01EBC54F80C3C059354F8103C049324
:1047700054F8143C039354F8183C029354F81C3C2E
:10478000019354F8203C009354E90A2354E90C01A6
:10479000FFF768FF54F8303C5E65D3E7D4E90A239D
:1047A000B3F1FF3F08BFB2F1FF3F05D052EA03016A
:1047B000206803D100F0C2FB3034CCE7314618301A
:1047C00000F014FDF8E700BF70970000D0970000DC
:1047D000259200002DE9F34104460E4600F1080839
:1047E0004FF02001EFF3118781F31288BFF36F8F31
:1047F000056AC1688D422AD204F02FFDA2680546E1
:10480000314678B10024406904F02AFE2846AC679E
:1048100004F0A9FC4046394600F07EFB204602B079
:10482000BDE8F081E06904F01BFEE369A26813446F
:104830006269E361934204BF2369E361236A013340
:104840002362002087F31188BFF36F8FE7E752EAF6
:1048500003010AD0064989684E61CDE90023394633
:104860000246404600F0F4FAD9E76FF02200E9E78B
:10487000CC0E0020F7B5044604F1080708464FF0B7
:104880002001EFF3118681F31288BFF36F8F216A45
:10489000002931D0A268A16904F0E2FDA369A268F1
:1048A00013446269A361934204BF2369A361236A2D
:1048B000013B2362204604F0D0FC054660B3416909
:1048C000A268E06904F0CCFDE369A2681344626960
:1048D000E361934204BF2369E361236A01332362E6
:1048E00000242846AC6704F03EFC3846314600F010
:1048F00013FB204603B0F0BD52EA03010AD0094978
:1049000089684861CDE9002331462246384600F0E7
:104910009FFAEFE76FF0220086F31188BFF36F8FE5
:10492000E8E700BFCC0E002038B5836804466BB3BF
:10493000194A926893422CD1C368012B03D9013BD9
:10494000C360002038BD4FF02003EFF3118583F3DF
:104950001288BFF36F8F0169806804F0AFFB2046B7
:1049600004F07BFCA06058B190F90E202261002277
:10497000826704F0F8FB0948294600F0CDFAE0E729
:10498000E06085F31188BFF36F8FDAE76FF01500F1
:10499000D8E74FF0FF30D5E7CC0E0020241E0020D2
:1049A0002DE9F341044617461E464FF02003EFF36E
:1049B000118883F31288BFF36F8FC368334A7BB1CA
:1049C00080689168884219D057EA060318D188F3A5
:1049D0001188BFF36F8F6FF00F0002B0BDE8F08158
:1049E000916891F90E1021610133E3609368A3602F
:1049F00088F31188BFF36F8F0020EEE72169F2E79B
:104A000091F90E1090F90E309942A8BF19466FF037
:104A10007E029142B8BF11468B422EDD04F04EFB60
:104A20000546CDE900761A482246414600F010FAC4
:104A30000028E1D04FF02003EFF3118683F31288B2
:104A4000BFF36F8FA068D0B1236821699C420AD060
:104A50004BB193F90E309942A8BF19466FF07E030F
:104A60009942B8BF194604F029FB40B108483146C5
:104A700000F052FA6FF00A00AFE70025D1E7002DF1
:104A8000F4D186F31188BFF36F8FF3E7CC0E0020CB
:104A9000241E002038B504464FF02003EFF31185A3
:104AA00083F31288BFF36F8F04F0D7FB48B1002265
:104AB000826704F058FB29460748BDE8384000F0FB
:104AC0002BBAD4E902329A4218BF0133A36085F3AE
:104AD0001188BFF36F8F38BD241E002013B54FF02F
:104AE0002004EFF3118184F31288BFF36F8F846881
:104AF00044B1013C846081F31188BFF36F8F0020C3
:104B000002B010BD52EA030406D181F31188BFF34D
:104B10006F8F6FF00F00F3E7CDE9002302460248E4
:104B200000F096F9ECE700BF241E0020C3897F2B1C
:104B300012D80A4B1B6863B1094B90F90E201B6811
:104B40009A4209DB437BDB0606D1064BC31A18BF2A
:104B5000012303F0010070470023FAE75002002010
:104B60004C020020C8060020044BC01A044BC010A1
:104B70005843044B01221A54704700BFC807002055
:104B8000ABAAAAAA241E002070B50E4B0E4C1E7CA8
:104B900006EB460304EBC3040546204604F0B0FBD5
:104BA0000A4B002228469A55FFF7C0FF48B1084B30
:104BB00008491A68013A2046D317BDE8704000F052
:104BC00015BB70BDCC0E0020C8070020241E00209D
:104BD00050020020694B000038B50D4D2B4653F8AC
:104BE000184F9C4200D004B9EC68AB6838B95A7BC6
:104BF000D20604D1A26912B9DA897F2A05D89C426B
:104C000002D02046FFF7C0FF23466B6138BD00BFCE
:104C1000CC0E002070B590F90D20437B002A014690
:104C200004DA03F07F03437304F063FA4B7B154A05
:104C300063F07F0310464B7350F8183FD4698342EA
:104C400008BF002323B9C1E900042160D1610CE051
:104C500091F90E5093F90E60B5420ED0AE420CDDC4
:104C60005868C1E90030016059609068431A5842A1
:104C7000BDE870405841FFF7AFBF9C42E3D01B68CE
:104C8000E0E700BFCC0E002070B490F90D30427BFD
:104C9000002B29DBD30627D183692BBB134962F094
:104CA0007F0242730A4652F8184F944218BF2346B7
:104CB000CC6923B9C0E900242060C8610CE090F9F8
:104CC0000E5093F90E60B5420AD0AE4208DD5A6824
:104CD000C0E900321060586070BC0020FFF77CBF54
:104CE000A342E7D01B68E4E770BC7047CC0E0020FD
:104CF00008B590F90D20437B002A014604DA03F041
:104D00007F03437304F0F5F9044B9868431A584243
:104D10005841BDE80840FFF75FBF00BFCC0E002040
:104D200070B515461C46064604F0F5F9B4F1FF3F90
:104D300008BFB5F1FF3F08D02A46234606F1180008
:104D40000249BDE8704000F051BA70BD25920000E4
:104D50002DE9F041002A437B0E460CBF10210821AB
:104D6000194204460AD10B43DD0903F09F0211D119
:104D70004273082914D00120FFF72EFF1B4B9B68BC
:104D8000A3422CD1EFF305834BBB3046BDE8F04185
:104D9000FCF7C4BC03F01F03437304F0AAF9E8E76F
:104DA000A36813B1204604F0ACF904F1180004F034
:104DB000A7FA04F158074FF00008A56DBD42DAD0FC
:104DC000002DD8D0284604F09CF905F1180004F015
:104DD00097FAC5F878802846FFF756FFEDE786F387
:104DE0001188BFF36F8FBDE8F08100BFCC0E0020AB
:104DF00038B54FF02003EFF3118583F31288BFF32A
:104E00006F8F104B104A9C681068A04206D1FFF7C4
:104E1000BBFE85F31188BFF36F8F38BD00211B7C6B
:104E200011600A4AD35C002BF3D02046FFF77EFEC8
:104E30000028EED0637BDB0602D12046FFF7EAFEB6
:104E40002046E4E7CC0E0020EC0E0020241E0020BB
:104E500070B50C480C4D86682E600C461146DDE995
:104E600004234FF02006EFF3118586F31288BFF379
:104E70006F8F8068FFF754FF2046BDE87040FCF755
:104E80004DBC00BFCC0E0020EC0E0020F8B504464F
:104E90004FF02003EFF3118683F31288BFF36F8F77
:104EA000437BDA0649B219D18569BDB903F07F03A6
:104EB000437304F01EF9437B164A817363F07F034A
:104EC0004373134653F8180F984218BF0546D0692C
:104ED0005DB9C4E900300460D46111E0A173002021
:104EE00086F31188BFF36F8FF8BD95F90E70B94244
:104EF0000BD08F4209DD6B68C4E900531C606C6005
:104F00000120FFF769FE0120EAE7A842E1D02D6801
:104F1000DEE700BFCC0E002049B9EFF3058030B9C1
:104F2000054B5A699B689A4201D0FCF7F7BB81F3A5
:104F30001188BFF36F8F7047CC0E002010B54FF073
:104F40002002EFF3118482F31288BFF36F8F427B4C
:104F5000510704D484F31188BFF36F8F10BD22F082
:104F600004024273FFF790FE21460248BDE810405C
:104F7000FFF7D2BF251E00204FF02003EFF3118171
:104F800083F31288BFF36F8F044B9A68D37B013B86
:104F9000D37381F31188BFF36F8F7047CC0E00205D
:104FA00010B54FF02003EFF3118483F31288BFF3A1
:104FB0006F8F084B9A68D37B0133D3730020FFF7C0
:104FC0000BFE84F31188BFF36F8FBDE8104004F02F
:104FD0006CB900BFCC0E0020024B03F11802C3E9EC
:104FE00006227047CC0E0020F8B54FF02003EFF3F7
:104FF000118583F31288BFF36F8F19498868437B4B
:1050000003F07F03437304F074F88B685A7B0846FF
:1050100062F07F025A7350F8182FCC69824208BFA1
:10502000002222B9C3E900042360CB610CE093F9AC
:105030000E6092F90E70BE420ED0B7420CDD516880
:10504000C3E900210B6053600120FFF7C5FD28462E
:10505000BDE8F840FCF762BBA242E3D01268E0E78B
:10506000CC0E002050EA01032DE9F04105460E4622
:1050700003D1FFF7B9FF00202CE0831C71F1FF334F
:105080002ADB04F053F92C184FF02003EFF31188BA
:1050900083F31288BFF36F8F114F124BB8681860FB
:1050A000FFF726FEB86810492A463346183000F04C
:1050B0009DF8BA68537B43F0100353734046FCF7E6
:1050C0002DFB04F033F9201A63EB0303012873F17D
:1050D0000003D0DBBDE8F0816FF00104241AD3E7B0
:1050E000CC0E0020EC0E002025920000B1F1FF3F15
:1050F00008BFB0F1FF3F08B506D1084B986804F02F
:1051000042F84FF0FF3008BDFFF7ACFF4FF47A7361
:1051100080FB0303C00B40EA4340F4E7CC0E0020C1
:10512000014B9868704700BFCC0E002008B50648B8
:10513000064A0749121A03F063FFBDE80840054A12
:105140000549064803F05CBF00000020A4030020CE
:10515000889D000000000000889D000000000020E5
:10516000034B1B680BB9FEF793BA0020704700BFD2
:10517000F00E002010B50E4B1C689C4204D1FFF7C6
:10518000EFFF6FF0004010BDFFF7EAFF002CF8D0F2
:10519000D4E904321B1A62EBE072B3F1004F72F1F2
:1051A0000001EEDA002AACBF18460020EBE700BF92
:1051B0005402002030B570B10B4B5B6898420AD0A6
:1051C000036843B1D3E90421D0E90445121941EB46
:1051D0000501C3E90421D0E9003213605A600023BD
:1051E000C0E9003330BD00BF54020020B3F1FF3FDF
:1051F00008BFB2F1FF3FF8B504461D4616465CD025
:1052000081604FF02003EFF3118783F31288BFF31F
:105210006F8F013275F1FF3324DA2D49D1E9002077
:105220006FF001039B1A4FF0FF3262EB00009E1BF0
:1052300060EB0500012E70F1000301DA0126002069
:10524000C4E90460234ED6F800C07568B44508BFB1
:105250004FF0000CBCF1000F0DD1C4E900652C60CB
:1052600074601CE0FFF77CFF013645F1000536183D
:1052700045EBE070E4E7DCE90420D4E90431934233
:1052800071EB000E1ADAD21ADCF8043060EB010080
:10529000CCE90420C4E900C31C60CCF804403368A6
:1052A000B34206D09C4204D1FFF764FF0021FEF711
:1052B000C1F987F31188BFF36F8FF8BD9B1A61EBBB
:1052C0000001AC45C4E90431C7D0DCF800C0C1E737
:1052D000E0070020540200202DE9F84F4FF0200392
:1052E000EFF3118C83F31288BFF36F8FDFF8B0A058
:1052F000DFF8B0902C4FC9F80000DAF80000002465
:10530000504508BF00200025D7E90021D9F800301A
:10531000E04680B3D0E9046C4FEAE37EB3427EEB13
:105320000C0B05DAF61A6CEB0E04C0E9046422E0FB
:10533000B21841EBE671C0E90445C7E90021FFF767
:1053400039FF88F31188BFF36F8F836898474FF058
:105350002003EFF3118883F31288BFF36F8FD9F81E
:105360000030DAF800009B1B5045C446C9F80030F5
:10537000CAD1D7E900219A1841EBE3730024C7E9A9
:105380000023C9F80040FFF7F5FE2146FEF752F969
:1053900088F31188BFF36F8FBDE8F84FFFF728BD82
:1053A00054020020F00E0020E007002010B54FF05E
:1053B0002003EFF3118483F31288BFF36F8FFFF79D
:1053C000CFFE064A0346D2E90001181841EBE3710B
:1053D00084F31188BFF36F8F10BD00BFE00700207A
:1053E000F8B504464FF02003EFF3118783F31288DA
:1053F000BFF36F8F026822B187F31188BFF36F8FFD
:10540000F8BDD0E90A36581C46F10001022871F1B6
:10541000000127D3012B76F10001BCBF0123164602
:105420005D1E46F1FF3603F085FF013041F10001BA
:10543000401946EB0101012871F100013ADB03F04C
:1054400079FF013041F100016FF00102401946EB94
:105450000103121A4FF0FF3161EB03031849204694
:10546000FFF7C4FE236B01332363236A73B187F311
:105470001188BFF36F8F236A204698474FF02003AF
:10548000EFF3118783F31288BFF36F8F54F8185F1F
:10549000A542B1D0002DAFD0284603F08FFE0023E7
:1054A000AB6787F31188BFF36F8F2846BDE8F840DC
:1054B00003F059BE6FF001024FF0FF33CEE700BF9B
:1054C000E15300002DE9F04105461C4690461F4679
:1054D0004FF02003EFF3118683F31288BFF36F8F31
:1054E000B4F1FF3F08BFB2F1FF3F05D186F3118849
:1054F000BFF36F8FBDE8F081531C74F1FF3309DBFC
:10550000012A74F10003BCBF0122002412F1FF380C
:1055100044F1FF37284603F0F3FEDDE906010023DE
:10552000C5E90A012B63034942463B462846FFF77B
:105530005DFEDBE7E1530000014802F034BF00BF2D
:10554000479D000038B5064C064DAC4201D3002003
:1055500038BDD4E90112204603F017FF1434F4E7F4
:10556000020300200203002010B50C4C236813B185
:105570000B4B1B682BB900F029FE30B9084B0122F8
:105580001A6001232360002010BD0138062801D9CC
:10559000044810BD044B53F8200010BDF80E002045
:1055A000F40E0020FE8FFFFFA0990000BFF34F8F85
:1055B0000549064BCA6802F4E0621343CB60BFF3AF
:1055C0004F8F00BFFDE700BF00ED00E00400FA05CB
:1055D00010B4094B09490A4C4FF0FE32C3F80024BD
:1055E0004968C3F80424C3F80824C3F80C24002332
:1055F000C4F8003510BC084700B002505C0200201F
:1056000000A00250D0E90012014BC3E9001270471C
:105610005C0200202DE9F043134B144E002814BF08
:1056200004461C4683B02368B34219D00D46204679
:105630004FF4E07104F10409174604F58E7800F088
:10564000E9F8484600F0ACFC404600F0DBFA0849B7
:1056500000972B464A46404600F0EAFA08B9266011
:10566000002003B0BDE8F083FC0E0020A5BCC95AA1
:105670002960000070B51D460C4B002818BF03467A
:105680000B481E68864282B00DD1002603F58E704D
:1056900000963346144600F017FB002818BF344626
:1056A0002C6002B070BD0348FBE700BFFC0E002079
:1056B000A5BCC95AE88FFFFF10B5044650B1636816
:1056C00013F0685F05D0064A934202D0002323609E
:1056D000626010BD034B04485B689847EFE700BF6A
:1056E0002C5F5CA95C020020BC990000C8B1436833
:1056F0000D4A934213D013F0685F0ED0012350E897
:10570000002F194640E8001C9CF0000FF7D1012A39
:10571000F5D0BFF35F8F00207047044870470448FE
:1057200070476FF4E04070472C5F5CA9E98FFFFF82
:10573000EA8FFFFF80B14368094A93420AD013F011
:10574000685F05D0BFF35F8F002303601846704782
:1057500004487047044870476FF4E040704700BF4A
:105760002C5F5CA9E98FFFFFEA8FFFFF10B50446AD
:1057700020B1044B63600022226010BD0248FFF795
:1057800027FFF6E73A00003AE499000070B5D0E947
:105790000023174C174D6360D0E90230C4E9023092
:1057A00022604868D1F800C0134BC3E900C0D5F8A7
:1057B0001801D1F808C0C3F808C010F0685FD1F82C
:1057C0000CC00969C3F80CC0196110D00B49C5F8A9
:1057D000BC110023C5E9453105F58A70C5F8B8311B
:1057E0009047236805F5DC70BDE87040184770BD30
:1057F00078020020FC0E0020640200202C5F5CA9CF
:1058000038B131B1014400220346013081421A709F
:10581000FAD1704738B131B101440022034601305A
:1058200088421A70FAD170472DE9F04FB2F5C07F67
:10583000B5B000F2D780DFF8B49114460D464FF4AE
:10584000D07200210DF15C080746484603F030FE97
:10585000404601F051F9002309F11806A9F810306B
:1058600063BA29462246A9F812303046202389F827
:10587000173003F0F5FD5E4B079303F104338022EC
:10588000089303F104330993325503F1043307A954
:1058900040460A9301F046F9824600287FD104F180
:1058A00019030BAE0FAC0293039701960494019871
:1058B000DFF840B11022002103F0FAFDDDF808A066
:1058C00005940E9B5BF8044C5BF80C7C0B995BF821
:1058D000100C5BF8085CDDE90C625C40019B7E40CB
:1058E000554081EA00071A4601214046CDE90B7672
:1058F000CDE90D5401F030F9BAF1100F94BFAAEBC5
:105900000A0AAAF1100A0BF1100B002865D1BAF1AE
:10591000000FD6D1059C01992046102203F0A0FD6E
:1059200099F8033010340133A04589F80330BED113
:10593000049C039F019E80222146404601F0F2F81C
:10594000824670BB07F120093D4613AB1A46012180
:10595000404601F001F91022824613A92846154459
:10596000BAF1000F1DD103F07BFD4D45EDD140464E
:1059700001F0D2F81D484FF4D071FFF74BFF2046DD
:105980002021FFF747FF07A81021FFF743FF30460C
:105990001021FFF73FFF504635B0BDE8F08F0FAC48
:1059A0000BAE404601F0B8F810484FF4D071FFF745
:1059B00031FF20462021FFF72DFF07A81021FFF718
:1059C00029FF10213046FFF725FF20213846FFF739
:1059D00021FF504635B0BDE8F08F039F019E049C27
:1059E0008246DEE76FF0370AF3E700BFCC100020F5
:1059F00000010203DC1000202DE9F04188B00446CC
:105A00000D4620220021684603F052FD04F12006D5
:105A10006F46E27B0132D2B2E273002A4DD1A27B03
:105A20000132D2B2A273002A47D1637B0133DBB2C9
:105A30006373002B41D1237B0133DBB22373002B33
:105A40003BD1E37A0133DBB2E372002B35D1A37A89
:105A50000133DBB2A372002B2FD1637A0133DBB2A7
:105A6000637253BB237A0133DBB223722BBBE3791E
:105A70000133DBB2E37103BBA3790133DBB2A37162
:105A8000DBB963790133DBB26371B3B923790133D5
:105A9000DBB223718BB9E3780133DBB2E37063B916
:105AA000A3780133DBB2A3703BB963780133DBB277
:105AB000637013B92378013323703B4622460121DA
:105AC000304601F049F8804650BB103708AB9F4282
:105AD0009FD1029AAB68039F0799534002933046C7
